{
  "_format": "hh-sol-artifact-1",
  "contractName": "HelloWorld",
  "sourceName": "contracts/contract.sol",
  "abi": [
    {
      "inputs": [
        {
          "internalType": "string",
          "name": "preName",
          "type": "string"
        }
      ],
      "stateMutability": "nonpayable",
      "type": "constructor"
    },
    {
      "inputs": [],
      "name": "getUserName",
      "outputs": [
        {
          "internalType": "string",
          "name": "",
          "type": "string"
        }
      ],
      "stateMutability": "view",
      "type": "function"
    },
    {
      "inputs": [],
      "name": "greetUser",
      "outputs": [
        {
          "internalType": "string",
          "name": "",
          "type": "string"
        }
      ],
      "stateMutability": "view",
      "type": "function"
    },
    {
      "inputs": [],
      "name": "greetingPrefixer",
      "outputs": [
        {
          "internalType": "string",
          "name": "",
          "type": "string"
        }
      ],
      "stateMutability": "view",
      "type": "function"
    },
    {
      "inputs": [],
      "name": "name",
      "outputs": [
        {
          "internalType": "string",
          "name": "",
          "type": "string"
        }
      ],
      "stateMutability": "view",
      "type": "function"
    },
    {
      "inputs": [
        {
          "internalType": "string",
          "name": "newName",
          "type": "string"
        }
      ],
      "name": "setUserName",
      "outputs": [],
      "stateMutability": "nonpayable",
      "type": "function"
    }
  ],
  "bytecode": "0x60806040526040518060400160405280600681526020017f48656c6c6f2000000000000000000000000000000000000000000000000000008152506001908051906020019062000051929190620000a5565b503480156200005f57600080fd5b5060405162000ae538038062000ae58339818101604052810190620000859190620002f2565b80600090805190602001906200009d929190620000a5565b5050620003a8565b828054620000b39062000372565b90600052602060002090601f016020900481019282620000d7576000855562000123565b82601f10620000f257805160ff191683800117855562000123565b8280016001018555821562000123579182015b828111156200012257825182559160200191906001019062000105565b5b50905062000132919062000136565b5090565b5b808211156200015157600081600090555060010162000137565b5090565b6000604051905090565b600080fd5b600080fd5b600080fd5b600080fd5b6000601f19601f8301169050919050565b7f4e487b7100000000000000000000000000000000000000000000000000000000600052604160045260246000fd5b620001be8262000173565b810181811067ffffffffffffffff82111715620001e057620001df62000184565b5b80604052505050565b6000620001f562000155565b9050620002038282620001b3565b919050565b600067ffffffffffffffff82111562000226576200022562000184565b5b620002318262000173565b9050602081019050919050565b60005b838110156200025e57808201518184015260208101905062000241565b838111156200026e576000848401525b50505050565b60006200028b620002858462000208565b620001e9565b905082815260208101848484011115620002aa57620002a96200016e565b5b620002b78482856200023e565b509392505050565b600082601f830112620002d757620002d662000169565b5b8151620002e984826020860162000274565b91505092915050565b6000602082840312156200030b576200030a6200015f565b5b600082015167ffffffffffffffff8111156200032c576200032b62000164565b5b6200033a84828501620002bf565b91505092915050565b7f4e487b7100000000000000000000000000000000000000000000000000000000600052602260045260246000fd5b600060028204905060018216806200038b57607f821691505b60208210811415620003a257620003a162000343565b5b50919050565b61072d80620003b86000396000f3fe608060405234801561001057600080fd5b50600436106100575760003560e01c806306fdde031461005c57806312958f1c1461007a5780632b5914fe14610098578063a12d5ffd146100b4578063e4fb8fbd146100d2575b600080fd5b6100646100f0565b604051610071919061041f565b60405180910390f35b61008261017e565b60405161008f919061041f565b60405180910390f35b6100b260048036038101906100ad919061058a565b610210565b005b6100bc61022a565b6040516100c9919061041f565b60405180910390f35b6100da610255565b6040516100e7919061041f565b60405180910390f35b600080546100fd90610602565b80601f016020809104026020016040519081016040528092919081815260200182805461012990610602565b80156101765780601f1061014b57610100808354040283529160200191610176565b820191906000526020600020905b81548152906001019060200180831161015957829003601f168201915b505050505081565b60606000805461018d90610602565b80601f01602080910402602001604051908101604052809291908181526020018280546101b990610602565b80156102065780601f106101db57610100808354040283529160200191610206565b820191906000526020600020905b8154815290600101906020018083116101e957829003601f168201915b5050505050905090565b80600090805190602001906102269291906102e3565b5050565b6060600160006040516020016102419291906106d3565b604051602081830303815290604052905090565b6001805461026290610602565b80601f016020809104026020016040519081016040528092919081815260200182805461028e90610602565b80156102db5780601f106102b0576101008083540402835291602001916102db565b820191906000526020600020905b8154815290600101906020018083116102be57829003601f168201915b505050505081565b8280546102ef90610602565b90600052602060002090601f0160209004810192826103115760008555610358565b82601f1061032a57805160ff1916838001178555610358565b82800160010185558215610358579182015b8281111561035757825182559160200191906001019061033c565b5b5090506103659190610369565b5090565b5b8082111561038257600081600090555060010161036a565b5090565b600081519050919050565b600082825260208201905092915050565b60005b838110156103c05780820151818401526020810190506103a5565b838111156103cf576000848401525b50505050565b6000601f19601f8301169050919050565b60006103f182610386565b6103fb8185610391565b935061040b8185602086016103a2565b610414816103d5565b840191505092915050565b6000602082019050818103600083015261043981846103e6565b905092915050565b6000604051905090565b600080fd5b600080fd5b600080fd5b600080fd5b7f4e487b7100000000000000000000000000000000000000000000000000000000600052604160045260246000fd5b610497826103d5565b810181811067ffffffffffffffff821117156104b6576104b561045f565b5b80604052505050565b60006104c9610441565b90506104d5828261048e565b919050565b600067ffffffffffffffff8211156104f5576104f461045f565b5b6104fe826103d5565b9050602081019050919050565b82818337600083830152505050565b600061052d610528846104da565b6104bf565b9050828152602081018484840111156105495761054861045a565b5b61055484828561050b565b509392505050565b600082601f83011261057157610570610455565b5b813561058184826020860161051a565b91505092915050565b6000602082840312156105a05761059f61044b565b5b600082013567ffffffffffffffff8111156105be576105bd610450565b5b6105ca8482850161055c565b91505092915050565b7f4e487b7100000000000000000000000000000000000000000000000000000000600052602260045260246000fd5b6000600282049050600182168061061a57607f821691505b6020821081141561062e5761062d6105d3565b5b50919050565b600081905092915050565b60008190508160005260206000209050919050565b6000815461066181610602565b61066b8186610634565b945060018216600081146106865760018114610697576106ca565b60ff198316865281860193506106ca565b6106a08561063f565b60005b838110156106c2578154818901526001820191506020810190506106a3565b838801955050505b50505092915050565b60006106df8285610654565b91506106eb8284610654565b9150819050939250505056fea2646970667358221220cb019698aab49da089c98d076bf7d3ca653a52ffd40a9c633696e7490e21528564736f6c634300080c0033",
  "linkReferences": {},
  "deployedLinkReferences": {}
}